{
  "_format": "hh-sol-artifact-1",
  "contractName": "EpicNFT",
  "sourceName": "contracts/EpicNFT.sol",
  "abi": [
    {
      "inputs": [],
      "stateMutability": "nonpayable",
      "type": "constructor"
    },
    {
      "anonymous": false,
      "inputs": [
        {
          "indexed": true,
          "internalType": "address",
          "name": "owner",
          "type": "address"
        },
        {
          "indexed": true,
          "internalType": "address",
          "name": "approved",
          "type": "address"
        },
        {
          "indexed": true,
          "internalType": "uint256",
          "name": "tokenId",
          "type": "uint256"
        }
      ],
      "name": "Approval",
      "type": "event"
    },
    {
      "anonymous": false,
      "inputs": [
        {
          "indexed": true,
          "internalType": "address",
          "name": "owner",
          "type": "address"
        },
        {
          "indexed": true,
          "internalType": "address",
          "name": "operator",
          "type": "address"
        },
        {
          "indexed": false,
          "internalType": "bool",
          "name": "approved",
          "type": "bool"
        }
      ],
      "name": "ApprovalForAll",
      "type": "event"
    },
    {
      "anonymous": false,
      "inputs": [
        {
          "indexed": false,
          "internalType": "address",
          "name": "sender",
          "type": "address"
        },
        {
          "indexed": false,
          "internalType": "uint256",
          "name": "tokenId",
          "type": "uint256"
        }
      ],
      "name": "NewEpicNFTMinted",
      "type": "event"
    },
    {
      "anonymous": false,
      "inputs": [
        {
          "indexed": true,
          "internalType": "address",
          "name": "from",
          "type": "address"
        },
        {
          "indexed": true,
          "internalType": "address",
          "name": "to",
          "type": "address"
        },
        {
          "indexed": true,
          "internalType": "uint256",
          "name": "tokenId",
          "type": "uint256"
        }
      ],
      "name": "Transfer",
      "type": "event"
    },
    {
      "inputs": [
        {
          "internalType": "address",
          "name": "to",
          "type": "address"
        },
        {
          "internalType": "uint256",
          "name": "tokenId",
          "type": "uint256"
        }
      ],
      "name": "approve",
      "outputs": [],
      "stateMutability": "nonpayable",
      "type": "function"
    },
    {
      "inputs": [
        {
          "internalType": "address",
          "name": "owner",
          "type": "address"
        }
      ],
      "name": "balanceOf",
      "outputs": [
        {
          "internalType": "uint256",
          "name": "",
          "type": "uint256"
        }
      ],
      "stateMutability": "view",
      "type": "function"
    },
    {
      "inputs": [
        {
          "internalType": "uint256",
          "name": "tokenId",
          "type": "uint256"
        }
      ],
      "name": "getApproved",
      "outputs": [
        {
          "internalType": "address",
          "name": "",
          "type": "address"
        }
      ],
      "stateMutability": "view",
      "type": "function"
    },
    {
      "inputs": [],
      "name": "getTotalNFTCount",
      "outputs": [
        {
          "internalType": "uint256",
          "name": "",
          "type": "uint256"
        },
        {
          "internalType": "uint256",
          "name": "",
          "type": "uint256"
        }
      ],
      "stateMutability": "view",
      "type": "function"
    },
    {
      "inputs": [
        {
          "internalType": "address",
          "name": "owner",
          "type": "address"
        },
        {
          "internalType": "address",
          "name": "operator",
          "type": "address"
        }
      ],
      "name": "isApprovedForAll",
      "outputs": [
        {
          "internalType": "bool",
          "name": "",
          "type": "bool"
        }
      ],
      "stateMutability": "view",
      "type": "function"
    },
    {
      "inputs": [],
      "name": "makeNFT",
      "outputs": [],
      "stateMutability": "nonpayable",
      "type": "function"
    },
    {
      "inputs": [],
      "name": "name",
      "outputs": [
        {
          "internalType": "string",
          "name": "",
          "type": "string"
        }
      ],
      "stateMutability": "view",
      "type": "function"
    },
    {
      "inputs": [
        {
          "internalType": "uint256",
          "name": "tokenId",
          "type": "uint256"
        }
      ],
      "name": "ownerOf",
      "outputs": [
        {
          "internalType": "address",
          "name": "",
          "type": "address"
        }
      ],
      "stateMutability": "view",
      "type": "function"
    },
    {
      "inputs": [
        {
          "internalType": "address",
          "name": "from",
          "type": "address"
        },
        {
          "internalType": "address",
          "name": "to",
          "type": "address"
        },
        {
          "internalType": "uint256",
          "name": "tokenId",
          "type": "uint256"
        }
      ],
      "name": "safeTransferFrom",
      "outputs": [],
      "stateMutability": "nonpayable",
      "type": "function"
    },
    {
      "inputs": [
        {
          "internalType": "address",
          "name": "from",
          "type": "address"
        },
        {
          "internalType": "address",
          "name": "to",
          "type": "address"
        },
        {
          "internalType": "uint256",
          "name": "tokenId",
          "type": "uint256"
        },
        {
          "internalType": "bytes",
          "name": "_data",
          "type": "bytes"
        }
      ],
      "name": "safeTransferFrom",
      "outputs": [],
      "stateMutability": "nonpayable",
      "type": "function"
    },
    {
      "inputs": [
        {
          "internalType": "address",
          "name": "operator",
          "type": "address"
        },
        {
          "internalType": "bool",
          "name": "approved",
          "type": "bool"
        }
      ],
      "name": "setApprovalForAll",
      "outputs": [],
      "stateMutability": "nonpayable",
      "type": "function"
    },
    {
      "inputs": [
        {
          "internalType": "bytes4",
          "name": "interfaceId",
          "type": "bytes4"
        }
      ],
      "name": "supportsInterface",
      "outputs": [
        {
          "internalType": "bool",
          "name": "",
          "type": "bool"
        }
      ],
      "stateMutability": "view",
      "type": "function"
    },
    {
      "inputs": [],
      "name": "symbol",
      "outputs": [
        {
          "internalType": "string",
          "name": "",
          "type": "string"
        }
      ],
      "stateMutability": "view",
      "type": "function"
    },
    {
      "inputs": [
        {
          "internalType": "uint256",
          "name": "tokenId",
          "type": "uint256"
        }
      ],
      "name": "tokenURI",
      "outputs": [
        {
          "internalType": "string",
          "name": "",
          "type": "string"
        }
      ],
      "stateMutability": "view",
      "type": "function"
    },
    {
      "inputs": [
        {
          "internalType": "address",
          "name": "from",
          "type": "address"
        },
        {
          "internalType": "address",
          "name": "to",
          "type": "address"
        },
        {
          "internalType": "uint256",
          "name": "tokenId",
          "type": "uint256"
        }
      ],
      "name": "transferFrom",
      "outputs": [],
      "stateMutability": "nonpayable",
      "type": "function"
    }
  ],
  "bytecode": "0x6080604052603260085560405180610160016040528061012f81526020016200454161012f9139600990805190602001906200003d92919062000770565b506040518060e001604052806040518060400160405280600981526020017f46616e746173746963000000000000000000000000000000000000000000000081525081526020016040518060400160405280600481526020017f457069630000000000000000000000000000000000000000000000000000000081525081526020016040518060400160405280600881526020017f5465727269626c6500000000000000000000000000000000000000000000000081525081526020016040518060400160405280600581526020017f4372617a7900000000000000000000000000000000000000000000000000000081525081526020016040518060400160405280600481526020017f57696c640000000000000000000000000000000000000000000000000000000081525081526020016040518060400160405280600a81526020017f54657272796679696e670000000000000000000000000000000000000000000081525081526020016040518060400160405280600681526020017f53706f6f6b790000000000000000000000000000000000000000000000000000815250815250600a906007620001f692919062000801565b506040518060e001604052806040518060400160405280600781526020017f43757063616b650000000000000000000000000000000000000000000000000081525081526020016040518060400160405280600581526020017f50697a7a6100000000000000000000000000000000000000000000000000000081525081526020016040518060400160405280600981526020017f4d696c6b7368616b65000000000000000000000000000000000000000000000081525081526020016040518060400160405280600581526020017f437572727900000000000000000000000000000000000000000000000000000081525081526020016040518060400160405280600781526020017f436869636b656e0000000000000000000000000000000000000000000000000081525081526020016040518060400160405280600881526020017f53616e647769636800000000000000000000000000000000000000000000000081525081526020016040518060400160405280600581526020017f53616c6164000000000000000000000000000000000000000000000000000000815250815250600b906007620003af92919062000801565b506040518061010001604052806040518060400160405280600681526020017f4e617275746f000000000000000000000000000000000000000000000000000081525081526020016040518060400160405280600681526020017f536173756b65000000000000000000000000000000000000000000000000000081525081526020016040518060400160405280600681526020017f446f726f726f000000000000000000000000000000000000000000000000000081525081526020016040518060400160405280600481526020017f476f6a6f0000000000000000000000000000000000000000000000000000000081525081526020016040518060400160405280600481526020017f4572656e0000000000000000000000000000000000000000000000000000000081525081526020016040518060400160405280600781526020017f5a686f6e676c690000000000000000000000000000000000000000000000000081525081526020016040518060400160405280600481526020017f5869616f0000000000000000000000000000000000000000000000000000000081525081526020016040518060400160405280600381526020017f5961650000000000000000000000000000000000000000000000000000000000815250815250600c906008620005a492919062000868565b50348015620005b257600080fd5b506040518060400160405280600d81526020017f59617a656572546573744e4654000000000000000000000000000000000000008152506040518060400160405280600381526020017f59415a000000000000000000000000000000000000000000000000000000000081525081600090805190602001906200063792919062000770565b5080600190805190602001906200065092919062000770565b5050506200069e6040518060400160405280601181526020017f45706963204e465420636f6e7472616374000000000000000000000000000000815250620006a460201b62000d1e1760201c565b62000a89565b6200074481604051602401620006bb91906200099d565b6040516020818303038152906040527f41304fac000000000000000000000000000000000000000000000000000000007bffffffffffffffffffffffffffffffffffffffffffffffffffffffff19166020820180517bffffffffffffffffffffffffffffffffffffffffffffffffffffffff83818316178352505050506200074760201b60201c565b50565b60008151905060006a636f6e736f6c652e6c6f679050602083016000808483855afa5050505050565b8280546200077e9062000a13565b90600052602060002090601f016020900481019282620007a25760008555620007ee565b82601f10620007bd57805160ff1916838001178555620007ee565b82800160010185558215620007ee579182015b82811115620007ed578251825591602001919060010190620007d0565b5b509050620007fd9190620008cf565b5090565b82805482825590600052602060002090810192821562000855579160200282015b82811115620008545782518290805190602001906200084392919062000770565b509160200191906001019062000822565b5b509050620008649190620008ee565b5090565b828054828255906000526020600020908101928215620008bc579160200282015b82811115620008bb578251829080519060200190620008aa92919062000770565b509160200191906001019062000889565b5b509050620008cb9190620008ee565b5090565b5b80821115620008ea576000816000905550600101620008d0565b5090565b5b8082111562000912576000818162000908919062000916565b50600101620008ef565b5090565b508054620009249062000a13565b6000825580601f1062000938575062000959565b601f016020900490600052602060002090810190620009589190620008cf565b5b50565b60006200096982620009c1565b620009758185620009cc565b935062000987818560208601620009dd565b620009928162000a78565b840191505092915050565b60006020820190508181036000830152620009b981846200095c565b905092915050565b600081519050919050565b600082825260208201905092915050565b60005b83811015620009fd578082015181840152602081019050620009e0565b8381111562000a0d576000848401525b50505050565b6000600282049050600182168062000a2c57607f821691505b6020821081141562000a435762000a4262000a49565b5b50919050565b7f4e487b7100000000000000000000000000000000000000000000000000000000600052602260045260246000fd5b6000601f19601f8301169050919050565b613aa88062000a996000396000f3fe608060405234801561001057600080fd5b50600436106100f55760003560e01c806370a0823111610097578063b88d4fde11610066578063b88d4fde14610270578063bc50c9c11461028c578063c87b56dd146102ab578063e985e9c5146102db576100f5565b806370a08231146101fc57806395d89b411461022c578063a22cb4651461024a578063b036b4bd14610266576100f5565b8063095ea7b3116100d3578063095ea7b31461017857806323b872dd1461019457806342842e0e146101b05780636352211e146101cc576100f5565b806301ffc9a7146100fa57806306fdde031461012a578063081812fc14610148575b600080fd5b610114600480360381019061010f9190612485565b61030b565b6040516101219190612c1c565b60405180910390f35b6101326103ed565b60405161013f9190612c37565b60405180910390f35b610162600480360381019061015d91906124d7565b61047f565b60405161016f9190612b8c565b60405180910390f35b610192600480360381019061018d9190612449565b610504565b005b6101ae60048036038101906101a99190612343565b61061c565b005b6101ca60048036038101906101c59190612343565b61067c565b005b6101e660048036038101906101e191906124d7565b61069c565b6040516101f39190612b8c565b60405180910390f35b610216600480360381019061021191906122de565b61074e565b6040516102239190612e97565b60405180910390f35b610234610806565b6040516102419190612c37565b60405180910390f35b610264600480360381019061025f919061240d565b610898565b005b61026e6108ae565b005b61028a60048036038101906102859190612392565b610ab8565b005b610294610b1a565b6040516102a2929190612eb2565b60405180910390f35b6102c560048036038101906102c091906124d7565b610b38565b6040516102d29190612c37565b60405180910390f35b6102f560048036038101906102f09190612307565b610c8a565b6040516103029190612c1c565b60405180910390f35b60007f80ac58cd000000000000000000000000000000000000000000000000000000007bffffffffffffffffffffffffffffffffffffffffffffffffffffffff1916827bffffffffffffffffffffffffffffffffffffffffffffffffffffffff191614806103d657507f5b5e139f000000000000000000000000000000000000000000000000000000007bffffffffffffffffffffffffffffffffffffffffffffffffffffffff1916827bffffffffffffffffffffffffffffffffffffffffffffffffffffffff1916145b806103e657506103e582610db7565b5b9050919050565b6060600080546103fc90613154565b80601f016020809104026020016040519081016040528092919081815260200182805461042890613154565b80156104755780601f1061044a57610100808354040283529160200191610475565b820191906000526020600020905b81548152906001019060200180831161045857829003601f168201915b5050505050905090565b600061048a82610e21565b6104c9576040517f08c379a00000000000000000000000000000000000000000000000000000000081526004016104c090612e17565b60405180910390fd5b6004600083815260200190815260200160002060009054906101000a900473ffffffffffffffffffffffffffffffffffffffff169050919050565b600061050f8261069c565b90508073ffffffffffffffffffffffffffffffffffffffff168373ffffffffffffffffffffffffffffffffffffffff161415610580576040517f08c379a000000000000000000000000000000000000000000000000000000000815260040161057790612e57565b60405180910390fd5b8073ffffffffffffffffffffffffffffffffffffffff1661059f610e8d565b73ffffffffffffffffffffffffffffffffffffffff1614806105ce57506105cd816105c8610e8d565b610c8a565b5b61060d576040517f08c379a000000000000000000000000000000000000000000000000000000000815260040161060490612d57565b60405180910390fd5b6106178383610e95565b505050565b61062d610627610e8d565b82610f4e565b61066c576040517f08c379a000000000000000000000000000000000000000000000000000000000815260040161066390612e77565b60405180910390fd5b61067783838361102c565b505050565b61069783838360405180602001604052806000815250610ab8565b505050565b6000806002600084815260200190815260200160002060009054906101000a900473ffffffffffffffffffffffffffffffffffffffff169050600073ffffffffffffffffffffffffffffffffffffffff168173ffffffffffffffffffffffffffffffffffffffff161415610745576040517f08c379a000000000000000000000000000000000000000000000000000000000815260040161073c90612d97565b60405180910390fd5b80915050919050565b60008073ffffffffffffffffffffffffffffffffffffffff168273ffffffffffffffffffffffffffffffffffffffff1614156107bf576040517f08c379a00000000000000000000000000000000000000000000000000000000081526004016107b690612d77565b60405180910390fd5b600360008373ffffffffffffffffffffffffffffffffffffffff1673ffffffffffffffffffffffffffffffffffffffff168152602001908152602001600020549050919050565b60606001805461081590613154565b80601f016020809104026020016040519081016040528092919081815260200182805461084190613154565b801561088e5780601f106108635761010080835404028352916020019161088e565b820191906000526020600020905b81548152906001019060200180831161087157829003601f168201915b5050505050905090565b6108aa6108a3610e8d565b8383611293565b5050565b60006108ba6007611400565b905060006108c78261140e565b905060006108d48361152c565b905060006108e18461164a565b905060008383836040516020016108fa93929190612a3b565b6040516020818303038152906040529050600060098585856040516020016109259493929190612a6c565b6040516020818303038152906040529050600061096a8361094584611768565b604051602001610956929190612ad7565b604051602081830303815290604052611768565b905060008160405160200161097f9190612b6a565b60405160208183030381529060405290506109ce6040518060400160405280601581526020017f0a2d2d2d2d2d2d2d2d2d2d2d2d2d2d2d2d2d2d2d2d0000000000000000000000815250610d1e565b6109f6816040516020016109e29190612ab5565b604051602081830303815290604052610d1e565b610a346040518060400160405280601581526020017f2d2d2d2d2d2d2d2d2d2d2d2d2d2d2d2d2d2d2d2d0a0000000000000000000000815250610d1e565b610a3e3389611907565b610a488882611925565b610a526007611999565b610a75604051806060016040528060258152602001613a0e6025913989336119af565b7febb98688741ffa4c7589bf325de30cf7becb63de567842e1ccdb6cb949fdc82c3389604051610aa6929190612bf3565b60405180910390a15050505050505050565b610ac9610ac3610e8d565b83610f4e565b610b08576040517f08c379a0000000000000000000000000000000000000000000000000000000008152600401610aff90612e77565b60405180910390fd5b610b1484848484611a4e565b50505050565b6000806000610b296007611400565b90508060085492509250509091565b6060610b4382610e21565b610b82576040517f08c379a0000000000000000000000000000000000000000000000000000000008152600401610b7990612df7565b60405180910390fd5b6000600660008481526020019081526020016000208054610ba290613154565b80601f0160208091040260200160405190810160405280929190818152602001828054610bce90613154565b8015610c1b5780601f10610bf057610100808354040283529160200191610c1b565b820191906000526020600020905b815481529060010190602001808311610bfe57829003601f168201915b505050505090506000610c2c611aaa565b9050600081511415610c42578192505050610c85565b600082511115610c77578082604051602001610c5f929190612a17565b60405160208183030381529060405292505050610c85565b610c8084611ac1565b925050505b919050565b6000600560008473ffffffffffffffffffffffffffffffffffffffff1673ffffffffffffffffffffffffffffffffffffffff16815260200190815260200160002060008373ffffffffffffffffffffffffffffffffffffffff1673ffffffffffffffffffffffffffffffffffffffff16815260200190815260200160002060009054906101000a900460ff16905092915050565b610db481604051602401610d329190612c37565b6040516020818303038152906040527f41304fac000000000000000000000000000000000000000000000000000000007bffffffffffffffffffffffffffffffffffffffffffffffffffffffff19166020820180517bffffffffffffffffffffffffffffffffffffffffffffffffffffffff8381831617835250505050611b68565b50565b60007f01ffc9a7000000000000000000000000000000000000000000000000000000007bffffffffffffffffffffffffffffffffffffffffffffffffffffffff1916827bffffffffffffffffffffffffffffffffffffffffffffffffffffffff1916149050919050565b60008073ffffffffffffffffffffffffffffffffffffffff166002600084815260200190815260200160002060009054906101000a900473ffffffffffffffffffffffffffffffffffffffff1673ffffffffffffffffffffffffffffffffffffffff1614159050919050565b600033905090565b816004600083815260200190815260200160002060006101000a81548173ffffffffffffffffffffffffffffffffffffffff021916908373ffffffffffffffffffffffffffffffffffffffff160217905550808273ffffffffffffffffffffffffffffffffffffffff16610f088361069c565b73ffffffffffffffffffffffffffffffffffffffff167f8c5be1e5ebec7d5bd14f71427d1e84f3dd0314c0f7b2291e5b200ac8c7c3b92560405160405180910390a45050565b6000610f5982610e21565b610f98576040517f08c379a0000000000000000000000000000000000000000000000000000000008152600401610f8f90612d37565b60405180910390fd5b6000610fa38361069c565b90508073ffffffffffffffffffffffffffffffffffffffff168473ffffffffffffffffffffffffffffffffffffffff16148061101257508373ffffffffffffffffffffffffffffffffffffffff16610ffa8461047f565b73ffffffffffffffffffffffffffffffffffffffff16145b8061102357506110228185610c8a565b5b91505092915050565b8273ffffffffffffffffffffffffffffffffffffffff1661104c8261069c565b73ffffffffffffffffffffffffffffffffffffffff16146110a2576040517f08c379a000000000000000000000000000000000000000000000000000000000815260040161109990612cb7565b60405180910390fd5b600073ffffffffffffffffffffffffffffffffffffffff168273ffffffffffffffffffffffffffffffffffffffff161415611112576040517f08c379a000000000000000000000000000000000000000000000000000000000815260040161110990612cf7565b60405180910390fd5b61111d838383611b91565b611128600082610e95565b6001600360008573ffffffffffffffffffffffffffffffffffffffff1673ffffffffffffffffffffffffffffffffffffffff1681526020019081526020016000206000828254611178919061306a565b925050819055506001600360008473ffffffffffffffffffffffffffffffffffffffff1673ffffffffffffffffffffffffffffffffffffffff16815260200190815260200160002060008282546111cf9190612f89565b92505081905550816002600083815260200190815260200160002060006101000a81548173ffffffffffffffffffffffffffffffffffffffff021916908373ffffffffffffffffffffffffffffffffffffffff160217905550808273ffffffffffffffffffffffffffffffffffffffff168473ffffffffffffffffffffffffffffffffffffffff167fddf252ad1be2c89b69c2b068fc378daa952ba7f163c4a11628f55a4df523b3ef60405160405180910390a461128e838383611b96565b505050565b8173ffffffffffffffffffffffffffffffffffffffff168373ffffffffffffffffffffffffffffffffffffffff161415611302576040517f08c379a00000000000000000000000000000000000000000000000000000000081526004016112f990612d17565b60405180910390fd5b80600560008573ffffffffffffffffffffffffffffffffffffffff1673ffffffffffffffffffffffffffffffffffffffff16815260200190815260200160002060008473ffffffffffffffffffffffffffffffffffffffff1673ffffffffffffffffffffffffffffffffffffffff16815260200190815260200160002060006101000a81548160ff0219169083151502179055508173ffffffffffffffffffffffffffffffffffffffff168373ffffffffffffffffffffffffffffffffffffffff167f17307eab39ab6107e8899845ad3d59bd9653f200f220920489ca2b5937696c31836040516113f39190612c1c565b60405180910390a3505050565b600081600001549050919050565b6060600061144261141e84611b9b565b60405160200161142e9190612b48565b604051602081830303815290604052611d48565b9050600a80549050816114559190613200565b9050600a8181548110611491577f4e487b7100000000000000000000000000000000000000000000000000000000600052603260045260246000fd5b9060005260206000200180546114a690613154565b80601f01602080910402602001604051908101604052809291908181526020018280546114d290613154565b801561151f5780601f106114f45761010080835404028352916020019161151f565b820191906000526020600020905b81548152906001019060200180831161150257829003601f168201915b5050505050915050919050565b6060600061156061153c84611b9b565b60405160200161154c9190612b48565b604051602081830303815290604052611d48565b9050600b80549050816115739190613200565b9050600b81815481106115af577f4e487b7100000000000000000000000000000000000000000000000000000000600052603260045260246000fd5b9060005260206000200180546115c490613154565b80601f01602080910402602001604051908101604052809291908181526020018280546115f090613154565b801561163d5780601f106116125761010080835404028352916020019161163d565b820191906000526020600020905b81548152906001019060200180831161162057829003601f168201915b5050505050915050919050565b6060600061167e61165a84611b9b565b60405160200161166a9190612b48565b604051602081830303815290604052611d48565b9050600c80549050816116919190613200565b9050600c81815481106116cd577f4e487b7100000000000000000000000000000000000000000000000000000000600052603260045260246000fd5b9060005260206000200180546116e290613154565b80601f016020809104026020016040519081016040528092919081815260200182805461170e90613154565b801561175b5780601f106117305761010080835404028352916020019161175b565b820191906000526020600020905b81548152906001019060200180831161173e57829003601f168201915b5050505050915050919050565b606060008251141561178b57604051806020016040528060008152509050611902565b6000604051806060016040528060408152602001613a3360409139905060006003600285516117ba9190612f89565b6117c49190612fdf565b60046117d09190613010565b905060006020826117e19190612f89565b67ffffffffffffffff811115611820577f4e487b7100000000000000000000000000000000000000000000000000000000600052604160045260246000fd5b6040519080825280601f01601f1916602001820160405280156118525781602001600182028036833780820191505090505b509050818152600183018586518101602084015b818310156118c1576003830192508251603f8160121c168501518253600182019150603f81600c1c168501518253600182019150603f8160061c168501518253600182019150603f8116850151825360018201915050611866565b6003895106600181146118db57600281146118eb576118f6565b613d3d60f01b60028303526118f6565b603d60f81b60018303525b50505050508093505050505b919050565b611921828260405180602001604052806000815250611d7b565b5050565b61192e82610e21565b61196d576040517f08c379a000000000000000000000000000000000000000000000000000000000815260040161196490612db7565b60405180910390fd5b8060066000848152602001908152602001600020908051906020019061199492919061216a565b505050565b6001816000016000828254019250508190555050565b611a498383836040516024016119c793929190612c59565b6040516020818303038152906040527fe3849f79000000000000000000000000000000000000000000000000000000007bffffffffffffffffffffffffffffffffffffffffffffffffffffffff19166020820180517bffffffffffffffffffffffffffffffffffffffffffffffffffffffff8381831617835250505050611b68565b505050565b611a5984848461102c565b611a6584848484611dd6565b611aa4576040517f08c379a0000000000000000000000000000000000000000000000000000000008152600401611a9b90612c97565b60405180910390fd5b50505050565b606060405180602001604052806000815250905090565b6060611acc82610e21565b611b0b576040517f08c379a0000000000000000000000000000000000000000000000000000000008152600401611b0290612e37565b60405180910390fd5b6000611b15611aaa565b90506000815111611b355760405180602001604052806000815250611b60565b80611b3f84611b9b565b604051602001611b50929190612a17565b6040516020818303038152906040525b915050919050565b60008151905060006a636f6e736f6c652e6c6f679050602083016000808483855afa5050505050565b505050565b505050565b60606000821415611be3576040518060400160405280600181526020017f30000000000000000000000000000000000000000000000000000000000000008152509050611d43565b600082905060005b60008214611c15578080611bfe906131b7565b915050600a82611c0e9190612fdf565b9150611beb565b60008167ffffffffffffffff811115611c57577f4e487b7100000000000000000000000000000000000000000000000000000000600052604160045260246000fd5b6040519080825280601f01601f191660200182016040528015611c895781602001600182028036833780820191505090505b5090505b60008514611d3c57600182611ca2919061306a565b9150600a85611cb19190613200565b6030611cbd9190612f89565b60f81b818381518110611cf9577f4e487b7100000000000000000000000000000000000000000000000000000000600052603260045260246000fd5b60200101907effffffffffffffffffffffffffffffffffffffffffffffffffffffffffffff1916908160001a905350600a85611d359190612fdf565b9450611c8d565b8093505050505b919050565b600081604051602001611d5b9190612a00565b6040516020818303038152906040528051906020012060001c9050919050565b611d858383611f6d565b611d926000848484611dd6565b611dd1576040517f08c379a0000000000000000000000000000000000000000000000000000000008152600401611dc890612c97565b60405180910390fd5b505050565b6000611df78473ffffffffffffffffffffffffffffffffffffffff16612147565b15611f60578373ffffffffffffffffffffffffffffffffffffffff1663150b7a02611e20610e8d565b8786866040518563ffffffff1660e01b8152600401611e429493929190612ba7565b602060405180830381600087803b158015611e5c57600080fd5b505af1925050508015611e8d57506040513d601f19601f82011682018060405250810190611e8a91906124ae565b60015b611f10573d8060008114611ebd576040519150601f19603f3d011682016040523d82523d6000602084013e611ec2565b606091505b50600081511415611f08576040517f08c379a0000000000000000000000000000000000000000000000000000000008152600401611eff90612c97565b60405180910390fd5b805181602001fd5b63150b7a0260e01b7bffffffffffffffffffffffffffffffffffffffffffffffffffffffff1916817bffffffffffffffffffffffffffffffffffffffffffffffffffffffff191614915050611f65565b600190505b949350505050565b600073ffffffffffffffffffffffffffffffffffffffff168273ffffffffffffffffffffffffffffffffffffffff161415611fdd576040517f08c379a0000000000000000000000000000000000000000000000000000000008152600401611fd490612dd7565b60405180910390fd5b611fe681610e21565b15612026576040517f08c379a000000000000000000000000000000000000000000000000000000000815260040161201d90612cd7565b60405180910390fd5b61203260008383611b91565b6001600360008473ffffffffffffffffffffffffffffffffffffffff1673ffffffffffffffffffffffffffffffffffffffff16815260200190815260200160002060008282546120829190612f89565b92505081905550816002600083815260200190815260200160002060006101000a81548173ffffffffffffffffffffffffffffffffffffffff021916908373ffffffffffffffffffffffffffffffffffffffff160217905550808273ffffffffffffffffffffffffffffffffffffffff16600073ffffffffffffffffffffffffffffffffffffffff167fddf252ad1be2c89b69c2b068fc378daa952ba7f163c4a11628f55a4df523b3ef60405160405180910390a461214360008383611b96565b5050565b6000808273ffffffffffffffffffffffffffffffffffffffff163b119050919050565b82805461217690613154565b90600052602060002090601f01602090048101928261219857600085556121df565b82601f106121b157805160ff19168380011785556121df565b828001600101855582156121df579182015b828111156121de5782518255916020019190600101906121c3565b5b5090506121ec91906121f0565b5090565b5b808211156122095760008160009055506001016121f1565b5090565b600061222061221b84612f00565b612edb565b90508281526020810184848401111561223857600080fd5b612243848285613112565b509392505050565b60008135905061225a816139b1565b92915050565b60008135905061226f816139c8565b92915050565b600081359050612284816139df565b92915050565b600081519050612299816139df565b92915050565b600082601f8301126122b057600080fd5b81356122c084826020860161220d565b91505092915050565b6000813590506122d8816139f6565b92915050565b6000602082840312156122f057600080fd5b60006122fe8482850161224b565b91505092915050565b6000806040838503121561231a57600080fd5b60006123288582860161224b565b92505060206123398582860161224b565b9150509250929050565b60008060006060848603121561235857600080fd5b60006123668682870161224b565b93505060206123778682870161224b565b9250506040612388868287016122c9565b9150509250925092565b600080600080608085870312156123a857600080fd5b60006123b68782880161224b565b94505060206123c78782880161224b565b93505060406123d8878288016122c9565b925050606085013567ffffffffffffffff8111156123f557600080fd5b6124018782880161229f565b91505092959194509250565b6000806040838503121561242057600080fd5b600061242e8582860161224b565b925050602061243f85828601612260565b9150509250929050565b6000806040838503121561245c57600080fd5b600061246a8582860161224b565b925050602061247b858286016122c9565b9150509250929050565b60006020828403121561249757600080fd5b60006124a584828501612275565b91505092915050565b6000602082840312156124c057600080fd5b60006124ce8482850161228a565b91505092915050565b6000602082840312156124e957600080fd5b60006124f7848285016122c9565b91505092915050565b6125098161309e565b82525050565b612518816130b0565b82525050565b600061252982612f46565b6125338185612f5c565b9350612543818560208601613121565b61254c816132ed565b840191505092915050565b600061256282612f51565b61256c8185612f6d565b935061257c818560208601613121565b612585816132ed565b840191505092915050565b600061259b82612f51565b6125a58185612f7e565b93506125b5818560208601613121565b80840191505092915050565b600081546125ce81613154565b6125d88186612f7e565b945060018216600081146125f3576001811461260457612637565b60ff19831686528186019350612637565b61260d85612f31565b60005b8381101561262f57815481890152600182019150602081019050612610565b838801955050505b50505092915050565b600061264d602583612f7e565b9150612658826132fe565b602582019050919050565b6000612670603283612f6d565b915061267b8261334d565b604082019050919050565b6000612693600283612f7e565b915061269e8261339c565b600282019050919050565b60006126b6602583612f6d565b91506126c1826133c5565b604082019050919050565b60006126d9601c83612f6d565b91506126e482613414565b602082019050919050565b60006126fc603b83612f7e565b91506127078261343d565b603b82019050919050565b600061271f602583612f7e565b915061272a8261348c565b602582019050919050565b6000612742602483612f6d565b915061274d826134db565b604082019050919050565b6000612765601983612f6d565b91506127708261352a565b602082019050919050565b6000612788602c83612f6d565b915061279382613553565b604082019050919050565b60006127ab600d83612f7e565b91506127b6826135a2565b600d82019050919050565b60006127ce603883612f6d565b91506127d9826135cb565b604082019050919050565b60006127f1600183612f7e565b91506127fc8261361a565b600182019050919050565b6000612814602a83612f6d565b915061281f82613643565b604082019050919050565b6000612837602983612f6d565b915061284282613692565b604082019050919050565b600061285a602e83612f6d565b9150612865826136e1565b604082019050919050565b600061287d602083612f6d565b915061288882613730565b602082019050919050565b60006128a0600183612f7e565b91506128ab82613759565b600182019050919050565b60006128c3603183612f6d565b91506128ce82613782565b604082019050919050565b60006128e6602c83612f6d565b91506128f1826137d1565b604082019050919050565b6000612909600983612f7e565b915061291482613820565b600982019050919050565b600061292c602f83612f6d565b915061293782613849565b604082019050919050565b600061294f600183612f7e565b915061295a82613898565b600182019050919050565b6000612972602183612f6d565b915061297d826138c1565b604082019050919050565b6000612995600a83612f7e565b91506129a082613910565b600a82019050919050565b60006129b8601d83612f7e565b91506129c382613939565b601d82019050919050565b60006129db603183612f6d565b91506129e682613962565b604082019050919050565b6129fa81613108565b82525050565b6000612a0c8284612590565b915081905092915050565b6000612a238285612590565b9150612a2f8284612590565b91508190509392505050565b6000612a478286612590565b9150612a538285612590565b9150612a5f8284612590565b9150819050949350505050565b6000612a7882876125c1565b9150612a848286612590565b9150612a908285612590565b9150612a9c8284612590565b9150612aa78261279e565b915081905095945050505050565b6000612ac082612640565b9150612acc8284612590565b915081905092915050565b6000612ae282612942565b9150612aed826128fc565b9150612af98285612590565b9150612b0482612686565b9150612b0f826126ef565b9150612b1a82612712565b9150612b268284612590565b9150612b31826127e4565b9150612b3c82612893565b91508190509392505050565b6000612b5382612988565b9150612b5f8284612590565b915081905092915050565b6000612b75826129ab565b9150612b818284612590565b915081905092915050565b6000602082019050612ba16000830184612500565b92915050565b6000608082019050612bbc6000830187612500565b612bc96020830186612500565b612bd660408301856129f1565b8181036060830152612be8818461251e565b905095945050505050565b6000604082019050612c086000830185612500565b612c1560208301846129f1565b9392505050565b6000602082019050612c31600083018461250f565b92915050565b60006020820190508181036000830152612c518184612557565b905092915050565b60006060820190508181036000830152612c738186612557565b9050612c8260208301856129f1565b612c8f6040830184612500565b949350505050565b60006020820190508181036000830152612cb081612663565b9050919050565b60006020820190508181036000830152612cd0816126a9565b9050919050565b60006020820190508181036000830152612cf0816126cc565b9050919050565b60006020820190508181036000830152612d1081612735565b9050919050565b60006020820190508181036000830152612d3081612758565b9050919050565b60006020820190508181036000830152612d508161277b565b9050919050565b60006020820190508181036000830152612d70816127c1565b9050919050565b60006020820190508181036000830152612d9081612807565b9050919050565b60006020820190508181036000830152612db08161282a565b9050919050565b60006020820190508181036000830152612dd08161284d565b9050919050565b60006020820190508181036000830152612df081612870565b9050919050565b60006020820190508181036000830152612e10816128b6565b9050919050565b60006020820190508181036000830152612e30816128d9565b9050919050565b60006020820190508181036000830152612e508161291f565b9050919050565b60006020820190508181036000830152612e7081612965565b9050919050565b60006020820190508181036000830152612e90816129ce565b9050919050565b6000602082019050612eac60008301846129f1565b92915050565b6000604082019050612ec760008301856129f1565b612ed460208301846129f1565b9392505050565b6000612ee5612ef6565b9050612ef18282613186565b919050565b6000604051905090565b600067ffffffffffffffff821115612f1b57612f1a6132be565b5b612f24826132ed565b9050602081019050919050565b60008190508160005260206000209050919050565b600081519050919050565b600081519050919050565b600082825260208201905092915050565b600082825260208201905092915050565b600081905092915050565b6000612f9482613108565b9150612f9f83613108565b9250827fffffffffffffffffffffffffffffffffffffffffffffffffffffffffffffffff03821115612fd457612fd3613231565b5b828201905092915050565b6000612fea82613108565b9150612ff583613108565b92508261300557613004613260565b5b828204905092915050565b600061301b82613108565b915061302683613108565b9250817fffffffffffffffffffffffffffffffffffffffffffffffffffffffffffffffff048311821515161561305f5761305e613231565b5b828202905092915050565b600061307582613108565b915061308083613108565b92508282101561309357613092613231565b5b828203905092915050565b60006130a9826130e8565b9050919050565b60008115159050919050565b60007fffffffff0000000000000000000000000000000000000000000000000000000082169050919050565b600073ffffffffffffffffffffffffffffffffffffffff82169050919050565b6000819050919050565b82818337600083830152505050565b60005b8381101561313f578082015181840152602081019050613124565b8381111561314e576000848401525b50505050565b6000600282049050600182168061316c57607f821691505b602082108114156131805761317f61328f565b5b50919050565b61318f826132ed565b810181811067ffffffffffffffff821117156131ae576131ad6132be565b5b80604052505050565b60006131c282613108565b91507fffffffffffffffffffffffffffffffffffffffffffffffffffffffffffffffff8214156131f5576131f4613231565b5b600182019050919050565b600061320b82613108565b915061321683613108565b92508261322657613225613260565b5b828206905092915050565b7f4e487b7100000000000000000000000000000000000000000000000000000000600052601160045260246000fd5b7f4e487b7100000000000000000000000000000000000000000000000000000000600052601260045260246000fd5b7f4e487b7100000000000000000000000000000000000000000000000000000000600052602260045260246000fd5b7f4e487b7100000000000000000000000000000000000000000000000000000000600052604160045260246000fd5b6000601f19601f8301169050919050565b7f68747470733a2f2f6e6674707265766965772e30786465762e636f6465732f3f60008201527f636f64653d000000000000000000000000000000000000000000000000000000602082015250565b7f4552433732313a207472616e7366657220746f206e6f6e20455243373231526560008201527f63656976657220696d706c656d656e7465720000000000000000000000000000602082015250565b7f222c000000000000000000000000000000000000000000000000000000000000600082015250565b7f4552433732313a207472616e736665722066726f6d20696e636f72726563742060008201527f6f776e6572000000000000000000000000000000000000000000000000000000602082015250565b7f4552433732313a20746f6b656e20616c7265616479206d696e74656400000000600082015250565b7f226465736372697074696f6e223a20224120686967686c79206163636c61696d60008201527f656420636f6c6c656374696f6e206f6620737175617265732e222c0000000000602082015250565b7f22696d61676522203a2022646174613a696d6167652f7376672b786d6c3b626160008201527f736536342c000000000000000000000000000000000000000000000000000000602082015250565b7f4552433732313a207472616e7366657220746f20746865207a65726f2061646460008201527f7265737300000000000000000000000000000000000000000000000000000000602082015250565b7f4552433732313a20617070726f766520746f2063616c6c657200000000000000600082015250565b7f4552433732313a206f70657261746f7220717565727920666f72206e6f6e657860008201527f697374656e7420746f6b656e0000000000000000000000000000000000000000602082015250565b7f3c2f746578743e3c2f7376673e00000000000000000000000000000000000000600082015250565b7f4552433732313a20617070726f76652063616c6c6572206973206e6f74206f7760008201527f6e6572206e6f7220617070726f76656420666f7220616c6c0000000000000000602082015250565b7f2200000000000000000000000000000000000000000000000000000000000000600082015250565b7f4552433732313a2062616c616e636520717565727920666f7220746865207a6560008201527f726f206164647265737300000000000000000000000000000000000000000000602082015250565b7f4552433732313a206f776e657220717565727920666f72206e6f6e657869737460008201527f656e7420746f6b656e0000000000000000000000000000000000000000000000602082015250565b7f45524337323155524953746f726167653a2055524920736574206f66206e6f6e60008201527f6578697374656e7420746f6b656e000000000000000000000000000000000000602082015250565b7f4552433732313a206d696e7420746f20746865207a65726f2061646472657373600082015250565b7f7d00000000000000000000000000000000000000000000000000000000000000600082015250565b7f45524337323155524953746f726167653a2055524920717565727920666f722060008201527f6e6f6e6578697374656e7420746f6b656e000000000000000000000000000000602082015250565b7f4552433732313a20617070726f76656420717565727920666f72206e6f6e657860008201527f697374656e7420746f6b656e0000000000000000000000000000000000000000602082015250565b7f226e616d65223a20220000000000000000000000000000000000000000000000600082015250565b7f4552433732314d657461646174613a2055524920717565727920666f72206e6f60008201527f6e6578697374656e7420746f6b656e0000000000000000000000000000000000602082015250565b7f7b00000000000000000000000000000000000000000000000000000000000000600082015250565b7f4552433732313a20617070726f76616c20746f2063757272656e74206f776e6560008201527f7200000000000000000000000000000000000000000000000000000000000000602082015250565b7f46495253545f574f524400000000000000000000000000000000000000000000600082015250565b7f646174613a6170706c69636174696f6e2f6a736f6e3b6261736536342c000000600082015250565b7f4552433732313a207472616e736665722063616c6c6572206973206e6f74206f60008201527f776e6572206e6f7220617070726f766564000000000000000000000000000000602082015250565b6139ba8161309e565b81146139c557600080fd5b50565b6139d1816130b0565b81146139dc57600080fd5b50565b6139e8816130bc565b81146139f357600080fd5b50565b6139ff81613108565b8114613a0a57600080fd5b5056fe416e204e465420772f20494420257320686173206265656e206d696e74656420746f2025734142434445464748494a4b4c4d4e4f505152535455565758595a6162636465666768696a6b6c6d6e6f707172737475767778797a303132333435363738392b2fa2646970667358221220405fe64e476d450cf428c44f27203f20fd240eae1718f5fe8bc9ca6c74b31ef164736f6c634300080100333c73766720786d6c6e733d27687474703a2f2f7777772e77332e6f72672f323030302f73766727207072657365727665417370656374526174696f3d27784d696e594d696e206d656574272076696577426f783d273020302033353020333530273e3c7374796c653e2e62617365207b2066696c6c3a2077686974653b20666f6e742d66616d696c793a2073657269663b20666f6e742d73697a653a20323470783b207d3c2f7374796c653e3c726563742077696474683d273130302527206865696768743d2731303025272066696c6c3d27626c61636b27202f3e3c7465787420783d273530252720793d273530252720636c6173733d27626173652720646f6d696e616e742d626173656c696e653d276d6964646c652720746578742d616e63686f723d276d6964646c65273e",
  "linkReferences": {},
  "deployedLinkReferences": {}
}