{
  "_format": "hh-sol-artifact-1",
  "contractName": "EpicNFT",
  "sourceName": "contracts/EpicNFT.sol",
  "abi": [
    {
      "inputs": [],
      "stateMutability": "nonpayable",
      "type": "constructor"
    },
    {
      "anonymous": false,
      "inputs": [
        {
          "indexed": true,
          "internalType": "address",
          "name": "owner",
          "type": "address"
        },
        {
          "indexed": true,
          "internalType": "address",
          "name": "approved",
          "type": "address"
        },
        {
          "indexed": true,
          "internalType": "uint256",
          "name": "tokenId",
          "type": "uint256"
        }
      ],
      "name": "Approval",
      "type": "event"
    },
    {
      "anonymous": false,
      "inputs": [
        {
          "indexed": true,
          "internalType": "address",
          "name": "owner",
          "type": "address"
        },
        {
          "indexed": true,
          "internalType": "address",
          "name": "operator",
          "type": "address"
        },
        {
          "indexed": false,
          "internalType": "bool",
          "name": "approved",
          "type": "bool"
        }
      ],
      "name": "ApprovalForAll",
      "type": "event"
    },
    {
      "anonymous": false,
      "inputs": [
        {
          "indexed": true,
          "internalType": "address",
          "name": "from",
          "type": "address"
        },
        {
          "indexed": true,
          "internalType": "address",
          "name": "to",
          "type": "address"
        },
        {
          "indexed": true,
          "internalType": "uint256",
          "name": "tokenId",
          "type": "uint256"
        }
      ],
      "name": "Transfer",
      "type": "event"
    },
    {
      "inputs": [
        {
          "internalType": "address",
          "name": "to",
          "type": "address"
        },
        {
          "internalType": "uint256",
          "name": "tokenId",
          "type": "uint256"
        }
      ],
      "name": "approve",
      "outputs": [],
      "stateMutability": "nonpayable",
      "type": "function"
    },
    {
      "inputs": [
        {
          "internalType": "address",
          "name": "owner",
          "type": "address"
        }
      ],
      "name": "balanceOf",
      "outputs": [
        {
          "internalType": "uint256",
          "name": "",
          "type": "uint256"
        }
      ],
      "stateMutability": "view",
      "type": "function"
    },
    {
      "inputs": [
        {
          "internalType": "uint256",
          "name": "tokenId",
          "type": "uint256"
        }
      ],
      "name": "getApproved",
      "outputs": [
        {
          "internalType": "address",
          "name": "",
          "type": "address"
        }
      ],
      "stateMutability": "view",
      "type": "function"
    },
    {
      "inputs": [
        {
          "internalType": "address",
          "name": "owner",
          "type": "address"
        },
        {
          "internalType": "address",
          "name": "operator",
          "type": "address"
        }
      ],
      "name": "isApprovedForAll",
      "outputs": [
        {
          "internalType": "bool",
          "name": "",
          "type": "bool"
        }
      ],
      "stateMutability": "view",
      "type": "function"
    },
    {
      "inputs": [],
      "name": "makeNFT",
      "outputs": [],
      "stateMutability": "nonpayable",
      "type": "function"
    },
    {
      "inputs": [],
      "name": "name",
      "outputs": [
        {
          "internalType": "string",
          "name": "",
          "type": "string"
        }
      ],
      "stateMutability": "view",
      "type": "function"
    },
    {
      "inputs": [
        {
          "internalType": "uint256",
          "name": "tokenId",
          "type": "uint256"
        }
      ],
      "name": "ownerOf",
      "outputs": [
        {
          "internalType": "address",
          "name": "",
          "type": "address"
        }
      ],
      "stateMutability": "view",
      "type": "function"
    },
    {
      "inputs": [
        {
          "internalType": "address",
          "name": "from",
          "type": "address"
        },
        {
          "internalType": "address",
          "name": "to",
          "type": "address"
        },
        {
          "internalType": "uint256",
          "name": "tokenId",
          "type": "uint256"
        }
      ],
      "name": "safeTransferFrom",
      "outputs": [],
      "stateMutability": "nonpayable",
      "type": "function"
    },
    {
      "inputs": [
        {
          "internalType": "address",
          "name": "from",
          "type": "address"
        },
        {
          "internalType": "address",
          "name": "to",
          "type": "address"
        },
        {
          "internalType": "uint256",
          "name": "tokenId",
          "type": "uint256"
        },
        {
          "internalType": "bytes",
          "name": "_data",
          "type": "bytes"
        }
      ],
      "name": "safeTransferFrom",
      "outputs": [],
      "stateMutability": "nonpayable",
      "type": "function"
    },
    {
      "inputs": [
        {
          "internalType": "address",
          "name": "operator",
          "type": "address"
        },
        {
          "internalType": "bool",
          "name": "approved",
          "type": "bool"
        }
      ],
      "name": "setApprovalForAll",
      "outputs": [],
      "stateMutability": "nonpayable",
      "type": "function"
    },
    {
      "inputs": [
        {
          "internalType": "bytes4",
          "name": "interfaceId",
          "type": "bytes4"
        }
      ],
      "name": "supportsInterface",
      "outputs": [
        {
          "internalType": "bool",
          "name": "",
          "type": "bool"
        }
      ],
      "stateMutability": "view",
      "type": "function"
    },
    {
      "inputs": [],
      "name": "symbol",
      "outputs": [
        {
          "internalType": "string",
          "name": "",
          "type": "string"
        }
      ],
      "stateMutability": "view",
      "type": "function"
    },
    {
      "inputs": [
        {
          "internalType": "uint256",
          "name": "tokenId",
          "type": "uint256"
        }
      ],
      "name": "tokenURI",
      "outputs": [
        {
          "internalType": "string",
          "name": "",
          "type": "string"
        }
      ],
      "stateMutability": "view",
      "type": "function"
    },
    {
      "inputs": [
        {
          "internalType": "address",
          "name": "from",
          "type": "address"
        },
        {
          "internalType": "address",
          "name": "to",
          "type": "address"
        },
        {
          "internalType": "uint256",
          "name": "tokenId",
          "type": "uint256"
        }
      ],
      "name": "transferFrom",
      "outputs": [],
      "stateMutability": "nonpayable",
      "type": "function"
    }
  ],
  "bytecode": "0x608060405260405180610160016040528061012f81526020016200446961012f913960089080519060200190620000389291906200076b565b506040518060e001604052806040518060400160405280600981526020017f46616e746173746963000000000000000000000000000000000000000000000081525081526020016040518060400160405280600481526020017f457069630000000000000000000000000000000000000000000000000000000081525081526020016040518060400160405280600881526020017f5465727269626c6500000000000000000000000000000000000000000000000081525081526020016040518060400160405280600581526020017f4372617a7900000000000000000000000000000000000000000000000000000081525081526020016040518060400160405280600481526020017f57696c640000000000000000000000000000000000000000000000000000000081525081526020016040518060400160405280600a81526020017f54657272796679696e670000000000000000000000000000000000000000000081525081526020016040518060400160405280600681526020017f53706f6f6b7900000000000000000000000000000000000000000000000000008152508152506009906007620001f1929190620007fc565b506040518060e001604052806040518060400160405280600781526020017f43757063616b650000000000000000000000000000000000000000000000000081525081526020016040518060400160405280600581526020017f50697a7a6100000000000000000000000000000000000000000000000000000081525081526020016040518060400160405280600981526020017f4d696c6b7368616b65000000000000000000000000000000000000000000000081525081526020016040518060400160405280600581526020017f437572727900000000000000000000000000000000000000000000000000000081525081526020016040518060400160405280600781526020017f436869636b656e0000000000000000000000000000000000000000000000000081525081526020016040518060400160405280600881526020017f53616e647769636800000000000000000000000000000000000000000000000081525081526020016040518060400160405280600581526020017f53616c6164000000000000000000000000000000000000000000000000000000815250815250600a906007620003aa929190620007fc565b506040518061010001604052806040518060400160405280600681526020017f4e617275746f000000000000000000000000000000000000000000000000000081525081526020016040518060400160405280600681526020017f536173756b65000000000000000000000000000000000000000000000000000081525081526020016040518060400160405280600681526020017f446f726f726f000000000000000000000000000000000000000000000000000081525081526020016040518060400160405280600481526020017f476f6a6f0000000000000000000000000000000000000000000000000000000081525081526020016040518060400160405280600481526020017f4572656e0000000000000000000000000000000000000000000000000000000081525081526020016040518060400160405280600781526020017f5a686f6e676c690000000000000000000000000000000000000000000000000081525081526020016040518060400160405280600481526020017f5869616f0000000000000000000000000000000000000000000000000000000081525081526020016040518060400160405280600381526020017f5961650000000000000000000000000000000000000000000000000000000000815250815250600b9060086200059f92919062000863565b50348015620005ad57600080fd5b506040518060400160405280600d81526020017f59617a656572546573744e4654000000000000000000000000000000000000008152506040518060400160405280600381526020017f59415a00000000000000000000000000000000000000000000000000000000008152508160009080519060200190620006329291906200076b565b5080600190805190602001906200064b9291906200076b565b505050620006996040518060400160405280601181526020017f45706963204e465420636f6e74726163740000000000000000000000000000008152506200069f60201b62000c9d1760201c565b62000a84565b6200073f81604051602401620006b6919062000998565b6040516020818303038152906040527f41304fac000000000000000000000000000000000000000000000000000000007bffffffffffffffffffffffffffffffffffffffffffffffffffffffff19166020820180517bffffffffffffffffffffffffffffffffffffffffffffffffffffffff83818316178352505050506200074260201b60201c565b50565b60008151905060006a636f6e736f6c652e6c6f679050602083016000808483855afa5050505050565b828054620007799062000a0e565b90600052602060002090601f0160209004810192826200079d5760008555620007e9565b82601f10620007b857805160ff1916838001178555620007e9565b82800160010185558215620007e9579182015b82811115620007e8578251825591602001919060010190620007cb565b5b509050620007f89190620008ca565b5090565b82805482825590600052602060002090810192821562000850579160200282015b828111156200084f5782518290805190602001906200083e9291906200076b565b50916020019190600101906200081d565b5b5090506200085f9190620008e9565b5090565b828054828255906000526020600020908101928215620008b7579160200282015b82811115620008b6578251829080519060200190620008a59291906200076b565b509160200191906001019062000884565b5b509050620008c69190620008e9565b5090565b5b80821115620008e5576000816000905550600101620008cb565b5090565b5b808211156200090d576000818162000903919062000911565b50600101620008ea565b5090565b5080546200091f9062000a0e565b6000825580601f1062000933575062000954565b601f016020900490600052602060002090810190620009539190620008ca565b5b50565b60006200096482620009bc565b620009708185620009c7565b935062000982818560208601620009d8565b6200098d8162000a73565b840191505092915050565b60006020820190508181036000830152620009b4818462000957565b905092915050565b600081519050919050565b600082825260208201905092915050565b60005b83811015620009f8578082015181840152602081019050620009db565b8381111562000a08576000848401525b50505050565b6000600282049050600182168062000a2757607f821691505b6020821081141562000a3e5762000a3d62000a44565b5b50919050565b7f4e487b7100000000000000000000000000000000000000000000000000000000600052602260045260246000fd5b6000601f19601f8301169050919050565b6139d58062000a946000396000f3fe608060405234801561001057600080fd5b50600436106100ea5760003560e01c806370a082311161008c578063b036b4bd11610066578063b036b4bd1461025b578063b88d4fde14610265578063c87b56dd14610281578063e985e9c5146102b1576100ea565b806370a08231146101f157806395d89b4114610221578063a22cb4651461023f576100ea565b8063095ea7b3116100c8578063095ea7b31461016d57806323b872dd1461018957806342842e0e146101a55780636352211e146101c1576100ea565b806301ffc9a7146100ef57806306fdde031461011f578063081812fc1461013d575b600080fd5b61010960048036038101906101049190612404565b6102e1565b6040516101169190612b72565b60405180910390f35b6101276103c3565b6040516101349190612b8d565b60405180910390f35b61015760048036038101906101529190612456565b610455565b6040516101649190612b0b565b60405180910390f35b610187600480360381019061018291906123c8565b6104da565b005b6101a3600480360381019061019e91906122c2565b6105f2565b005b6101bf60048036038101906101ba91906122c2565b610652565b005b6101db60048036038101906101d69190612456565b610672565b6040516101e89190612b0b565b60405180910390f35b61020b6004803603810190610206919061225d565b610724565b6040516102189190612ded565b60405180910390f35b6102296107dc565b6040516102369190612b8d565b60405180910390f35b6102596004803603810190610254919061238c565b61086e565b005b610263610884565b005b61027f600480360381019061027a9190612311565b610a55565b005b61029b60048036038101906102969190612456565b610ab7565b6040516102a89190612b8d565b60405180910390f35b6102cb60048036038101906102c69190612286565b610c09565b6040516102d89190612b72565b60405180910390f35b60007f80ac58cd000000000000000000000000000000000000000000000000000000007bffffffffffffffffffffffffffffffffffffffffffffffffffffffff1916827bffffffffffffffffffffffffffffffffffffffffffffffffffffffff191614806103ac57507f5b5e139f000000000000000000000000000000000000000000000000000000007bffffffffffffffffffffffffffffffffffffffffffffffffffffffff1916827bffffffffffffffffffffffffffffffffffffffffffffffffffffffff1916145b806103bc57506103bb82610d36565b5b9050919050565b6060600080546103d290613081565b80601f01602080910402602001604051908101604052809291908181526020018280546103fe90613081565b801561044b5780601f106104205761010080835404028352916020019161044b565b820191906000526020600020905b81548152906001019060200180831161042e57829003601f168201915b5050505050905090565b600061046082610da0565b61049f576040517f08c379a000000000000000000000000000000000000000000000000000000000815260040161049690612d6d565b60405180910390fd5b6004600083815260200190815260200160002060009054906101000a900473ffffffffffffffffffffffffffffffffffffffff169050919050565b60006104e582610672565b90508073ffffffffffffffffffffffffffffffffffffffff168373ffffffffffffffffffffffffffffffffffffffff161415610556576040517f08c379a000000000000000000000000000000000000000000000000000000000815260040161054d90612dad565b60405180910390fd5b8073ffffffffffffffffffffffffffffffffffffffff16610575610e0c565b73ffffffffffffffffffffffffffffffffffffffff1614806105a457506105a38161059e610e0c565b610c09565b5b6105e3576040517f08c379a00000000000000000000000000000000000000000000000000000000081526004016105da90612cad565b60405180910390fd5b6105ed8383610e14565b505050565b6106036105fd610e0c565b82610ecd565b610642576040517f08c379a000000000000000000000000000000000000000000000000000000000815260040161063990612dcd565b60405180910390fd5b61064d838383610fab565b505050565b61066d83838360405180602001604052806000815250610a55565b505050565b6000806002600084815260200190815260200160002060009054906101000a900473ffffffffffffffffffffffffffffffffffffffff169050600073ffffffffffffffffffffffffffffffffffffffff168173ffffffffffffffffffffffffffffffffffffffff16141561071b576040517f08c379a000000000000000000000000000000000000000000000000000000000815260040161071290612ced565b60405180910390fd5b80915050919050565b60008073ffffffffffffffffffffffffffffffffffffffff168273ffffffffffffffffffffffffffffffffffffffff161415610795576040517f08c379a000000000000000000000000000000000000000000000000000000000815260040161078c90612ccd565b60405180910390fd5b600360008373ffffffffffffffffffffffffffffffffffffffff1673ffffffffffffffffffffffffffffffffffffffff168152602001908152602001600020549050919050565b6060600180546107eb90613081565b80601f016020809104026020016040519081016040528092919081815260200182805461081790613081565b80156108645780601f1061083957610100808354040283529160200191610864565b820191906000526020600020905b81548152906001019060200180831161084757829003601f168201915b5050505050905090565b610880610879610e0c565b8383611212565b5050565b6000610890600761137f565b9050600061089d8261138d565b905060006108aa836114ab565b905060006108b7846115c9565b905060008383836040516020016108d0939291906129ba565b6040516020818303038152906040529050600060088585856040516020016108fb94939291906129eb565b604051602081830303815290604052905060006109408361091b846116e7565b60405160200161092c929190612a56565b6040516020818303038152906040526116e7565b90506000816040516020016109559190612ae9565b60405160208183030381529060405290506109a46040518060400160405280601581526020017f0a2d2d2d2d2d2d2d2d2d2d2d2d2d2d2d2d2d2d2d2d0000000000000000000000815250610c9d565b6109cc816040516020016109b89190612a34565b604051602081830303815290604052610c9d565b610a0a6040518060400160405280601581526020017f2d2d2d2d2d2d2d2d2d2d2d2d2d2d2d2d2d2d2d2d0a0000000000000000000000815250610c9d565b610a143389611886565b610a1e88826118a4565b610a286007611918565b610a4b60405180606001604052806025815260200161393b60259139893361192e565b5050505050505050565b610a66610a60610e0c565b83610ecd565b610aa5576040517f08c379a0000000000000000000000000000000000000000000000000000000008152600401610a9c90612dcd565b60405180910390fd5b610ab1848484846119cd565b50505050565b6060610ac282610da0565b610b01576040517f08c379a0000000000000000000000000000000000000000000000000000000008152600401610af890612d4d565b60405180910390fd5b6000600660008481526020019081526020016000208054610b2190613081565b80601f0160208091040260200160405190810160405280929190818152602001828054610b4d90613081565b8015610b9a5780601f10610b6f57610100808354040283529160200191610b9a565b820191906000526020600020905b815481529060010190602001808311610b7d57829003601f168201915b505050505090506000610bab611a29565b9050600081511415610bc1578192505050610c04565b600082511115610bf6578082604051602001610bde929190612996565b60405160208183030381529060405292505050610c04565b610bff84611a40565b925050505b919050565b6000600560008473ffffffffffffffffffffffffffffffffffffffff1673ffffffffffffffffffffffffffffffffffffffff16815260200190815260200160002060008373ffffffffffffffffffffffffffffffffffffffff1673ffffffffffffffffffffffffffffffffffffffff16815260200190815260200160002060009054906101000a900460ff16905092915050565b610d3381604051602401610cb19190612b8d565b6040516020818303038152906040527f41304fac000000000000000000000000000000000000000000000000000000007bffffffffffffffffffffffffffffffffffffffffffffffffffffffff19166020820180517bffffffffffffffffffffffffffffffffffffffffffffffffffffffff8381831617835250505050611ae7565b50565b60007f01ffc9a7000000000000000000000000000000000000000000000000000000007bffffffffffffffffffffffffffffffffffffffffffffffffffffffff1916827bffffffffffffffffffffffffffffffffffffffffffffffffffffffff1916149050919050565b60008073ffffffffffffffffffffffffffffffffffffffff166002600084815260200190815260200160002060009054906101000a900473ffffffffffffffffffffffffffffffffffffffff1673ffffffffffffffffffffffffffffffffffffffff1614159050919050565b600033905090565b816004600083815260200190815260200160002060006101000a81548173ffffffffffffffffffffffffffffffffffffffff021916908373ffffffffffffffffffffffffffffffffffffffff160217905550808273ffffffffffffffffffffffffffffffffffffffff16610e8783610672565b73ffffffffffffffffffffffffffffffffffffffff167f8c5be1e5ebec7d5bd14f71427d1e84f3dd0314c0f7b2291e5b200ac8c7c3b92560405160405180910390a45050565b6000610ed882610da0565b610f17576040517f08c379a0000000000000000000000000000000000000000000000000000000008152600401610f0e90612c8d565b60405180910390fd5b6000610f2283610672565b90508073ffffffffffffffffffffffffffffffffffffffff168473ffffffffffffffffffffffffffffffffffffffff161480610f9157508373ffffffffffffffffffffffffffffffffffffffff16610f7984610455565b73ffffffffffffffffffffffffffffffffffffffff16145b80610fa25750610fa18185610c09565b5b91505092915050565b8273ffffffffffffffffffffffffffffffffffffffff16610fcb82610672565b73ffffffffffffffffffffffffffffffffffffffff1614611021576040517f08c379a000000000000000000000000000000000000000000000000000000000815260040161101890612c0d565b60405180910390fd5b600073ffffffffffffffffffffffffffffffffffffffff168273ffffffffffffffffffffffffffffffffffffffff161415611091576040517f08c379a000000000000000000000000000000000000000000000000000000000815260040161108890612c4d565b60405180910390fd5b61109c838383611b10565b6110a7600082610e14565b6001600360008573ffffffffffffffffffffffffffffffffffffffff1673ffffffffffffffffffffffffffffffffffffffff16815260200190815260200160002060008282546110f79190612f97565b925050819055506001600360008473ffffffffffffffffffffffffffffffffffffffff1673ffffffffffffffffffffffffffffffffffffffff168152602001908152602001600020600082825461114e9190612eb6565b92505081905550816002600083815260200190815260200160002060006101000a81548173ffffffffffffffffffffffffffffffffffffffff021916908373ffffffffffffffffffffffffffffffffffffffff160217905550808273ffffffffffffffffffffffffffffffffffffffff168473ffffffffffffffffffffffffffffffffffffffff167fddf252ad1be2c89b69c2b068fc378daa952ba7f163c4a11628f55a4df523b3ef60405160405180910390a461120d838383611b15565b505050565b8173ffffffffffffffffffffffffffffffffffffffff168373ffffffffffffffffffffffffffffffffffffffff161415611281576040517f08c379a000000000000000000000000000000000000000000000000000000000815260040161127890612c6d565b60405180910390fd5b80600560008573ffffffffffffffffffffffffffffffffffffffff1673ffffffffffffffffffffffffffffffffffffffff16815260200190815260200160002060008473ffffffffffffffffffffffffffffffffffffffff1673ffffffffffffffffffffffffffffffffffffffff16815260200190815260200160002060006101000a81548160ff0219169083151502179055508173ffffffffffffffffffffffffffffffffffffffff168373ffffffffffffffffffffffffffffffffffffffff167f17307eab39ab6107e8899845ad3d59bd9653f200f220920489ca2b5937696c31836040516113729190612b72565b60405180910390a3505050565b600081600001549050919050565b606060006113c161139d84611b1a565b6040516020016113ad9190612ac7565b604051602081830303815290604052611cc7565b9050600980549050816113d4919061312d565b905060098181548110611410577f4e487b7100000000000000000000000000000000000000000000000000000000600052603260045260246000fd5b90600052602060002001805461142590613081565b80601f016020809104026020016040519081016040528092919081815260200182805461145190613081565b801561149e5780601f106114735761010080835404028352916020019161149e565b820191906000526020600020905b81548152906001019060200180831161148157829003601f168201915b5050505050915050919050565b606060006114df6114bb84611b1a565b6040516020016114cb9190612ac7565b604051602081830303815290604052611cc7565b9050600a80549050816114f2919061312d565b9050600a818154811061152e577f4e487b7100000000000000000000000000000000000000000000000000000000600052603260045260246000fd5b90600052602060002001805461154390613081565b80601f016020809104026020016040519081016040528092919081815260200182805461156f90613081565b80156115bc5780601f10611591576101008083540402835291602001916115bc565b820191906000526020600020905b81548152906001019060200180831161159f57829003601f168201915b5050505050915050919050565b606060006115fd6115d984611b1a565b6040516020016115e99190612ac7565b604051602081830303815290604052611cc7565b9050600b8054905081611610919061312d565b9050600b818154811061164c577f4e487b7100000000000000000000000000000000000000000000000000000000600052603260045260246000fd5b90600052602060002001805461166190613081565b80601f016020809104026020016040519081016040528092919081815260200182805461168d90613081565b80156116da5780601f106116af576101008083540402835291602001916116da565b820191906000526020600020905b8154815290600101906020018083116116bd57829003601f168201915b5050505050915050919050565b606060008251141561170a57604051806020016040528060008152509050611881565b600060405180606001604052806040815260200161396060409139905060006003600285516117399190612eb6565b6117439190612f0c565b600461174f9190612f3d565b905060006020826117609190612eb6565b67ffffffffffffffff81111561179f577f4e487b7100000000000000000000000000000000000000000000000000000000600052604160045260246000fd5b6040519080825280601f01601f1916602001820160405280156117d15781602001600182028036833780820191505090505b509050818152600183018586518101602084015b81831015611840576003830192508251603f8160121c168501518253600182019150603f81600c1c168501518253600182019150603f8160061c168501518253600182019150603f81168501518253600182019150506117e5565b60038951066001811461185a576002811461186a57611875565b613d3d60f01b6002830352611875565b603d60f81b60018303525b50505050508093505050505b919050565b6118a0828260405180602001604052806000815250611cfa565b5050565b6118ad82610da0565b6118ec576040517f08c379a00000000000000000000000000000000000000000000000000000000081526004016118e390612d0d565b60405180910390fd5b806006600084815260200190815260200160002090805190602001906119139291906120e9565b505050565b6001816000016000828254019250508190555050565b6119c883838360405160240161194693929190612baf565b6040516020818303038152906040527fe3849f79000000000000000000000000000000000000000000000000000000007bffffffffffffffffffffffffffffffffffffffffffffffffffffffff19166020820180517bffffffffffffffffffffffffffffffffffffffffffffffffffffffff8381831617835250505050611ae7565b505050565b6119d8848484610fab565b6119e484848484611d55565b611a23576040517f08c379a0000000000000000000000000000000000000000000000000000000008152600401611a1a90612bed565b60405180910390fd5b50505050565b606060405180602001604052806000815250905090565b6060611a4b82610da0565b611a8a576040517f08c379a0000000000000000000000000000000000000000000000000000000008152600401611a8190612d8d565b60405180910390fd5b6000611a94611a29565b90506000815111611ab45760405180602001604052806000815250611adf565b80611abe84611b1a565b604051602001611acf929190612996565b6040516020818303038152906040525b915050919050565b60008151905060006a636f6e736f6c652e6c6f679050602083016000808483855afa5050505050565b505050565b505050565b60606000821415611b62576040518060400160405280600181526020017f30000000000000000000000000000000000000000000000000000000000000008152509050611cc2565b600082905060005b60008214611b94578080611b7d906130e4565b915050600a82611b8d9190612f0c565b9150611b6a565b60008167ffffffffffffffff811115611bd6577f4e487b7100000000000000000000000000000000000000000000000000000000600052604160045260246000fd5b6040519080825280601f01601f191660200182016040528015611c085781602001600182028036833780820191505090505b5090505b60008514611cbb57600182611c219190612f97565b9150600a85611c30919061312d565b6030611c3c9190612eb6565b60f81b818381518110611c78577f4e487b7100000000000000000000000000000000000000000000000000000000600052603260045260246000fd5b60200101907effffffffffffffffffffffffffffffffffffffffffffffffffffffffffffff1916908160001a905350600a85611cb49190612f0c565b9450611c0c565b8093505050505b919050565b600081604051602001611cda919061297f565b6040516020818303038152906040528051906020012060001c9050919050565b611d048383611eec565b611d116000848484611d55565b611d50576040517f08c379a0000000000000000000000000000000000000000000000000000000008152600401611d4790612bed565b60405180910390fd5b505050565b6000611d768473ffffffffffffffffffffffffffffffffffffffff166120c6565b15611edf578373ffffffffffffffffffffffffffffffffffffffff1663150b7a02611d9f610e0c565b8786866040518563ffffffff1660e01b8152600401611dc19493929190612b26565b602060405180830381600087803b158015611ddb57600080fd5b505af1925050508015611e0c57506040513d601f19601f82011682018060405250810190611e09919061242d565b60015b611e8f573d8060008114611e3c576040519150601f19603f3d011682016040523d82523d6000602084013e611e41565b606091505b50600081511415611e87576040517f08c379a0000000000000000000000000000000000000000000000000000000008152600401611e7e90612bed565b60405180910390fd5b805181602001fd5b63150b7a0260e01b7bffffffffffffffffffffffffffffffffffffffffffffffffffffffff1916817bffffffffffffffffffffffffffffffffffffffffffffffffffffffff191614915050611ee4565b600190505b949350505050565b600073ffffffffffffffffffffffffffffffffffffffff168273ffffffffffffffffffffffffffffffffffffffff161415611f5c576040517f08c379a0000000000000000000000000000000000000000000000000000000008152600401611f5390612d2d565b60405180910390fd5b611f6581610da0565b15611fa5576040517f08c379a0000000000000000000000000000000000000000000000000000000008152600401611f9c90612c2d565b60405180910390fd5b611fb160008383611b10565b6001600360008473ffffffffffffffffffffffffffffffffffffffff1673ffffffffffffffffffffffffffffffffffffffff16815260200190815260200160002060008282546120019190612eb6565b92505081905550816002600083815260200190815260200160002060006101000a81548173ffffffffffffffffffffffffffffffffffffffff021916908373ffffffffffffffffffffffffffffffffffffffff160217905550808273ffffffffffffffffffffffffffffffffffffffff16600073ffffffffffffffffffffffffffffffffffffffff167fddf252ad1be2c89b69c2b068fc378daa952ba7f163c4a11628f55a4df523b3ef60405160405180910390a46120c260008383611b15565b5050565b6000808273ffffffffffffffffffffffffffffffffffffffff163b119050919050565b8280546120f590613081565b90600052602060002090601f016020900481019282612117576000855561215e565b82601f1061213057805160ff191683800117855561215e565b8280016001018555821561215e579182015b8281111561215d578251825591602001919060010190612142565b5b50905061216b919061216f565b5090565b5b80821115612188576000816000905550600101612170565b5090565b600061219f61219a84612e2d565b612e08565b9050828152602081018484840111156121b757600080fd5b6121c284828561303f565b509392505050565b6000813590506121d9816138de565b92915050565b6000813590506121ee816138f5565b92915050565b6000813590506122038161390c565b92915050565b6000815190506122188161390c565b92915050565b600082601f83011261222f57600080fd5b813561223f84826020860161218c565b91505092915050565b60008135905061225781613923565b92915050565b60006020828403121561226f57600080fd5b600061227d848285016121ca565b91505092915050565b6000806040838503121561229957600080fd5b60006122a7858286016121ca565b92505060206122b8858286016121ca565b9150509250929050565b6000806000606084860312156122d757600080fd5b60006122e5868287016121ca565b93505060206122f6868287016121ca565b925050604061230786828701612248565b9150509250925092565b6000806000806080858703121561232757600080fd5b6000612335878288016121ca565b9450506020612346878288016121ca565b935050604061235787828801612248565b925050606085013567ffffffffffffffff81111561237457600080fd5b6123808782880161221e565b91505092959194509250565b6000806040838503121561239f57600080fd5b60006123ad858286016121ca565b92505060206123be858286016121df565b9150509250929050565b600080604083850312156123db57600080fd5b60006123e9858286016121ca565b92505060206123fa85828601612248565b9150509250929050565b60006020828403121561241657600080fd5b6000612424848285016121f4565b91505092915050565b60006020828403121561243f57600080fd5b600061244d84828501612209565b91505092915050565b60006020828403121561246857600080fd5b600061247684828501612248565b91505092915050565b61248881612fcb565b82525050565b61249781612fdd565b82525050565b60006124a882612e73565b6124b28185612e89565b93506124c281856020860161304e565b6124cb8161321a565b840191505092915050565b60006124e182612e7e565b6124eb8185612e9a565b93506124fb81856020860161304e565b6125048161321a565b840191505092915050565b600061251a82612e7e565b6125248185612eab565b935061253481856020860161304e565b80840191505092915050565b6000815461254d81613081565b6125578186612eab565b945060018216600081146125725760018114612583576125b6565b60ff198316865281860193506125b6565b61258c85612e5e565b60005b838110156125ae5781548189015260018201915060208101905061258f565b838801955050505b50505092915050565b60006125cc602583612eab565b91506125d78261322b565b602582019050919050565b60006125ef603283612e9a565b91506125fa8261327a565b604082019050919050565b6000612612600283612eab565b915061261d826132c9565b600282019050919050565b6000612635602583612e9a565b9150612640826132f2565b604082019050919050565b6000612658601c83612e9a565b915061266382613341565b602082019050919050565b600061267b603b83612eab565b91506126868261336a565b603b82019050919050565b600061269e602583612eab565b91506126a9826133b9565b602582019050919050565b60006126c1602483612e9a565b91506126cc82613408565b604082019050919050565b60006126e4601983612e9a565b91506126ef82613457565b602082019050919050565b6000612707602c83612e9a565b915061271282613480565b604082019050919050565b600061272a600d83612eab565b9150612735826134cf565b600d82019050919050565b600061274d603883612e9a565b9150612758826134f8565b604082019050919050565b6000612770600183612eab565b915061277b82613547565b600182019050919050565b6000612793602a83612e9a565b915061279e82613570565b604082019050919050565b60006127b6602983612e9a565b91506127c1826135bf565b604082019050919050565b60006127d9602e83612e9a565b91506127e48261360e565b604082019050919050565b60006127fc602083612e9a565b91506128078261365d565b602082019050919050565b600061281f600183612eab565b915061282a82613686565b600182019050919050565b6000612842603183612e9a565b915061284d826136af565b604082019050919050565b6000612865602c83612e9a565b9150612870826136fe565b604082019050919050565b6000612888600983612eab565b91506128938261374d565b600982019050919050565b60006128ab602f83612e9a565b91506128b682613776565b604082019050919050565b60006128ce600183612eab565b91506128d9826137c5565b600182019050919050565b60006128f1602183612e9a565b91506128fc826137ee565b604082019050919050565b6000612914600a83612eab565b915061291f8261383d565b600a82019050919050565b6000612937601d83612eab565b915061294282613866565b601d82019050919050565b600061295a603183612e9a565b91506129658261388f565b604082019050919050565b61297981613035565b82525050565b600061298b828461250f565b915081905092915050565b60006129a2828561250f565b91506129ae828461250f565b91508190509392505050565b60006129c6828661250f565b91506129d2828561250f565b91506129de828461250f565b9150819050949350505050565b60006129f78287612540565b9150612a03828661250f565b9150612a0f828561250f565b9150612a1b828461250f565b9150612a268261271d565b915081905095945050505050565b6000612a3f826125bf565b9150612a4b828461250f565b915081905092915050565b6000612a61826128c1565b9150612a6c8261287b565b9150612a78828561250f565b9150612a8382612605565b9150612a8e8261266e565b9150612a9982612691565b9150612aa5828461250f565b9150612ab082612763565b9150612abb82612812565b91508190509392505050565b6000612ad282612907565b9150612ade828461250f565b915081905092915050565b6000612af48261292a565b9150612b00828461250f565b915081905092915050565b6000602082019050612b20600083018461247f565b92915050565b6000608082019050612b3b600083018761247f565b612b48602083018661247f565b612b556040830185612970565b8181036060830152612b67818461249d565b905095945050505050565b6000602082019050612b87600083018461248e565b92915050565b60006020820190508181036000830152612ba781846124d6565b905092915050565b60006060820190508181036000830152612bc981866124d6565b9050612bd86020830185612970565b612be5604083018461247f565b949350505050565b60006020820190508181036000830152612c06816125e2565b9050919050565b60006020820190508181036000830152612c2681612628565b9050919050565b60006020820190508181036000830152612c468161264b565b9050919050565b60006020820190508181036000830152612c66816126b4565b9050919050565b60006020820190508181036000830152612c86816126d7565b9050919050565b60006020820190508181036000830152612ca6816126fa565b9050919050565b60006020820190508181036000830152612cc681612740565b9050919050565b60006020820190508181036000830152612ce681612786565b9050919050565b60006020820190508181036000830152612d06816127a9565b9050919050565b60006020820190508181036000830152612d26816127cc565b9050919050565b60006020820190508181036000830152612d46816127ef565b9050919050565b60006020820190508181036000830152612d6681612835565b9050919050565b60006020820190508181036000830152612d8681612858565b9050919050565b60006020820190508181036000830152612da68161289e565b9050919050565b60006020820190508181036000830152612dc6816128e4565b9050919050565b60006020820190508181036000830152612de68161294d565b9050919050565b6000602082019050612e026000830184612970565b92915050565b6000612e12612e23565b9050612e1e82826130b3565b919050565b6000604051905090565b600067ffffffffffffffff821115612e4857612e476131eb565b5b612e518261321a565b9050602081019050919050565b60008190508160005260206000209050919050565b600081519050919050565b600081519050919050565b600082825260208201905092915050565b600082825260208201905092915050565b600081905092915050565b6000612ec182613035565b9150612ecc83613035565b9250827fffffffffffffffffffffffffffffffffffffffffffffffffffffffffffffffff03821115612f0157612f0061315e565b5b828201905092915050565b6000612f1782613035565b9150612f2283613035565b925082612f3257612f3161318d565b5b828204905092915050565b6000612f4882613035565b9150612f5383613035565b9250817fffffffffffffffffffffffffffffffffffffffffffffffffffffffffffffffff0483118215151615612f8c57612f8b61315e565b5b828202905092915050565b6000612fa282613035565b9150612fad83613035565b925082821015612fc057612fbf61315e565b5b828203905092915050565b6000612fd682613015565b9050919050565b60008115159050919050565b60007fffffffff0000000000000000000000000000000000000000000000000000000082169050919050565b600073ffffffffffffffffffffffffffffffffffffffff82169050919050565b6000819050919050565b82818337600083830152505050565b60005b8381101561306c578082015181840152602081019050613051565b8381111561307b576000848401525b50505050565b6000600282049050600182168061309957607f821691505b602082108114156130ad576130ac6131bc565b5b50919050565b6130bc8261321a565b810181811067ffffffffffffffff821117156130db576130da6131eb565b5b80604052505050565b60006130ef82613035565b91507fffffffffffffffffffffffffffffffffffffffffffffffffffffffffffffffff8214156131225761312161315e565b5b600182019050919050565b600061313882613035565b915061314383613035565b9250826131535761315261318d565b5b828206905092915050565b7f4e487b7100000000000000000000000000000000000000000000000000000000600052601160045260246000fd5b7f4e487b7100000000000000000000000000000000000000000000000000000000600052601260045260246000fd5b7f4e487b7100000000000000000000000000000000000000000000000000000000600052602260045260246000fd5b7f4e487b7100000000000000000000000000000000000000000000000000000000600052604160045260246000fd5b6000601f19601f8301169050919050565b7f68747470733a2f2f6e6674707265766965772e30786465762e636f6465732f3f60008201527f636f64653d000000000000000000000000000000000000000000000000000000602082015250565b7f4552433732313a207472616e7366657220746f206e6f6e20455243373231526560008201527f63656976657220696d706c656d656e7465720000000000000000000000000000602082015250565b7f222c000000000000000000000000000000000000000000000000000000000000600082015250565b7f4552433732313a207472616e736665722066726f6d20696e636f72726563742060008201527f6f776e6572000000000000000000000000000000000000000000000000000000602082015250565b7f4552433732313a20746f6b656e20616c7265616479206d696e74656400000000600082015250565b7f226465736372697074696f6e223a20224120686967686c79206163636c61696d60008201527f656420636f6c6c656374696f6e206f6620737175617265732e222c0000000000602082015250565b7f22696d61676522203a2022646174613a696d6167652f7376672b786d6c3b626160008201527f736536342c000000000000000000000000000000000000000000000000000000602082015250565b7f4552433732313a207472616e7366657220746f20746865207a65726f2061646460008201527f7265737300000000000000000000000000000000000000000000000000000000602082015250565b7f4552433732313a20617070726f766520746f2063616c6c657200000000000000600082015250565b7f4552433732313a206f70657261746f7220717565727920666f72206e6f6e657860008201527f697374656e7420746f6b656e0000000000000000000000000000000000000000602082015250565b7f3c2f746578743e3c2f7376673e00000000000000000000000000000000000000600082015250565b7f4552433732313a20617070726f76652063616c6c6572206973206e6f74206f7760008201527f6e6572206e6f7220617070726f76656420666f7220616c6c0000000000000000602082015250565b7f2200000000000000000000000000000000000000000000000000000000000000600082015250565b7f4552433732313a2062616c616e636520717565727920666f7220746865207a6560008201527f726f206164647265737300000000000000000000000000000000000000000000602082015250565b7f4552433732313a206f776e657220717565727920666f72206e6f6e657869737460008201527f656e7420746f6b656e0000000000000000000000000000000000000000000000602082015250565b7f45524337323155524953746f726167653a2055524920736574206f66206e6f6e60008201527f6578697374656e7420746f6b656e000000000000000000000000000000000000602082015250565b7f4552433732313a206d696e7420746f20746865207a65726f2061646472657373600082015250565b7f7d00000000000000000000000000000000000000000000000000000000000000600082015250565b7f45524337323155524953746f726167653a2055524920717565727920666f722060008201527f6e6f6e6578697374656e7420746f6b656e000000000000000000000000000000602082015250565b7f4552433732313a20617070726f76656420717565727920666f72206e6f6e657860008201527f697374656e7420746f6b656e0000000000000000000000000000000000000000602082015250565b7f226e616d65223a20220000000000000000000000000000000000000000000000600082015250565b7f4552433732314d657461646174613a2055524920717565727920666f72206e6f60008201527f6e6578697374656e7420746f6b656e0000000000000000000000000000000000602082015250565b7f7b00000000000000000000000000000000000000000000000000000000000000600082015250565b7f4552433732313a20617070726f76616c20746f2063757272656e74206f776e6560008201527f7200000000000000000000000000000000000000000000000000000000000000602082015250565b7f46495253545f574f524400000000000000000000000000000000000000000000600082015250565b7f646174613a6170706c69636174696f6e2f6a736f6e3b6261736536342c000000600082015250565b7f4552433732313a207472616e736665722063616c6c6572206973206e6f74206f60008201527f776e6572206e6f7220617070726f766564000000000000000000000000000000602082015250565b6138e781612fcb565b81146138f257600080fd5b50565b6138fe81612fdd565b811461390957600080fd5b50565b61391581612fe9565b811461392057600080fd5b50565b61392c81613035565b811461393757600080fd5b5056fe416e204e465420772f20494420257320686173206265656e206d696e74656420746f2025734142434445464748494a4b4c4d4e4f505152535455565758595a6162636465666768696a6b6c6d6e6f707172737475767778797a303132333435363738392b2fa26469706673582212204097fc2c4d9139046782e0b9dd23adbc12fabaaa63672638d56377d378b4002664736f6c634300080100333c73766720786d6c6e733d27687474703a2f2f7777772e77332e6f72672f323030302f73766727207072657365727665417370656374526174696f3d27784d696e594d696e206d656574272076696577426f783d273020302033353020333530273e3c7374796c653e2e62617365207b2066696c6c3a2077686974653b20666f6e742d66616d696c793a2073657269663b20666f6e742d73697a653a20323470783b207d3c2f7374796c653e3c726563742077696474683d273130302527206865696768743d2731303025272066696c6c3d27626c61636b27202f3e3c7465787420783d273530252720793d273530252720636c6173733d27626173652720646f6d696e616e742d626173656c696e653d276d6964646c652720746578742d616e63686f723d276d6964646c65273e",
  "linkReferences": {},
  "deployedLinkReferences": {}
}